{
  "contractName": "CBAI",
  "abi": [
    {
      "inputs": [
        {
          "internalType": "string",
          "name": "uri",
          "type": "string"
        }
      ],
      "stateMutability": "nonpayable",
      "type": "constructor"
    },
    {
      "anonymous": false,
      "inputs": [
        {
          "indexed": true,
          "internalType": "address",
          "name": "owner",
          "type": "address"
        },
        {
          "indexed": true,
          "internalType": "address",
          "name": "approved",
          "type": "address"
        },
        {
          "indexed": true,
          "internalType": "uint256",
          "name": "tokenId",
          "type": "uint256"
        }
      ],
      "name": "Approval",
      "type": "event"
    },
    {
      "anonymous": false,
      "inputs": [
        {
          "indexed": true,
          "internalType": "address",
          "name": "owner",
          "type": "address"
        },
        {
          "indexed": true,
          "internalType": "address",
          "name": "operator",
          "type": "address"
        },
        {
          "indexed": false,
          "internalType": "bool",
          "name": "approved",
          "type": "bool"
        }
      ],
      "name": "ApprovalForAll",
      "type": "event"
    },
    {
      "anonymous": false,
      "inputs": [
        {
          "indexed": true,
          "internalType": "address",
          "name": "previousOwner",
          "type": "address"
        },
        {
          "indexed": true,
          "internalType": "address",
          "name": "newOwner",
          "type": "address"
        }
      ],
      "name": "OwnershipTransferred",
      "type": "event"
    },
    {
      "anonymous": false,
      "inputs": [
        {
          "indexed": true,
          "internalType": "address",
          "name": "from",
          "type": "address"
        },
        {
          "indexed": true,
          "internalType": "address",
          "name": "to",
          "type": "address"
        },
        {
          "indexed": true,
          "internalType": "uint256",
          "name": "tokenId",
          "type": "uint256"
        }
      ],
      "name": "Transfer",
      "type": "event"
    },
    {
      "inputs": [
        {
          "internalType": "address",
          "name": "to",
          "type": "address"
        },
        {
          "internalType": "uint256",
          "name": "tokenId",
          "type": "uint256"
        }
      ],
      "name": "approve",
      "outputs": [],
      "stateMutability": "nonpayable",
      "type": "function"
    },
    {
      "inputs": [
        {
          "internalType": "address",
          "name": "owner",
          "type": "address"
        }
      ],
      "name": "balanceOf",
      "outputs": [
        {
          "internalType": "uint256",
          "name": "",
          "type": "uint256"
        }
      ],
      "stateMutability": "view",
      "type": "function",
      "constant": true
    },
    {
      "inputs": [],
      "name": "baseExtension",
      "outputs": [
        {
          "internalType": "string",
          "name": "",
          "type": "string"
        }
      ],
      "stateMutability": "view",
      "type": "function",
      "constant": true
    },
    {
      "inputs": [
        {
          "internalType": "uint256",
          "name": "tokenId",
          "type": "uint256"
        }
      ],
      "name": "getApproved",
      "outputs": [
        {
          "internalType": "address",
          "name": "",
          "type": "address"
        }
      ],
      "stateMutability": "view",
      "type": "function",
      "constant": true
    },
    {
      "inputs": [
        {
          "internalType": "address",
          "name": "owner",
          "type": "address"
        },
        {
          "internalType": "address",
          "name": "operator",
          "type": "address"
        }
      ],
      "name": "isApprovedForAll",
      "outputs": [
        {
          "internalType": "bool",
          "name": "",
          "type": "bool"
        }
      ],
      "stateMutability": "view",
      "type": "function",
      "constant": true
    },
    {
      "inputs": [],
      "name": "name",
      "outputs": [
        {
          "internalType": "string",
          "name": "",
          "type": "string"
        }
      ],
      "stateMutability": "view",
      "type": "function",
      "constant": true
    },
    {
      "inputs": [],
      "name": "owner",
      "outputs": [
        {
          "internalType": "address",
          "name": "",
          "type": "address"
        }
      ],
      "stateMutability": "view",
      "type": "function",
      "constant": true
    },
    {
      "inputs": [
        {
          "internalType": "uint256",
          "name": "tokenId",
          "type": "uint256"
        }
      ],
      "name": "ownerOf",
      "outputs": [
        {
          "internalType": "address",
          "name": "",
          "type": "address"
        }
      ],
      "stateMutability": "view",
      "type": "function",
      "constant": true
    },
    {
      "inputs": [],
      "name": "renounceOwnership",
      "outputs": [],
      "stateMutability": "nonpayable",
      "type": "function"
    },
    {
      "inputs": [
        {
          "internalType": "address",
          "name": "from",
          "type": "address"
        },
        {
          "internalType": "address",
          "name": "to",
          "type": "address"
        },
        {
          "internalType": "uint256",
          "name": "tokenId",
          "type": "uint256"
        }
      ],
      "name": "safeTransferFrom",
      "outputs": [],
      "stateMutability": "nonpayable",
      "type": "function"
    },
    {
      "inputs": [
        {
          "internalType": "address",
          "name": "from",
          "type": "address"
        },
        {
          "internalType": "address",
          "name": "to",
          "type": "address"
        },
        {
          "internalType": "uint256",
          "name": "tokenId",
          "type": "uint256"
        },
        {
          "internalType": "bytes",
          "name": "_data",
          "type": "bytes"
        }
      ],
      "name": "safeTransferFrom",
      "outputs": [],
      "stateMutability": "nonpayable",
      "type": "function"
    },
    {
      "inputs": [
        {
          "internalType": "address",
          "name": "operator",
          "type": "address"
        },
        {
          "internalType": "bool",
          "name": "approved",
          "type": "bool"
        }
      ],
      "name": "setApprovalForAll",
      "outputs": [],
      "stateMutability": "nonpayable",
      "type": "function"
    },
    {
      "inputs": [
        {
          "internalType": "bytes4",
          "name": "interfaceId",
          "type": "bytes4"
        }
      ],
      "name": "supportsInterface",
      "outputs": [
        {
          "internalType": "bool",
          "name": "",
          "type": "bool"
        }
      ],
      "stateMutability": "view",
      "type": "function",
      "constant": true
    },
    {
      "inputs": [],
      "name": "symbol",
      "outputs": [
        {
          "internalType": "string",
          "name": "",
          "type": "string"
        }
      ],
      "stateMutability": "view",
      "type": "function",
      "constant": true
    },
    {
      "inputs": [
        {
          "internalType": "address",
          "name": "from",
          "type": "address"
        },
        {
          "internalType": "address",
          "name": "to",
          "type": "address"
        },
        {
          "internalType": "uint256",
          "name": "tokenId",
          "type": "uint256"
        }
      ],
      "name": "transferFrom",
      "outputs": [],
      "stateMutability": "nonpayable",
      "type": "function"
    },
    {
      "inputs": [
        {
          "internalType": "address",
          "name": "newOwner",
          "type": "address"
        }
      ],
      "name": "transferOwnership",
      "outputs": [],
      "stateMutability": "nonpayable",
      "type": "function"
    },
    {
      "inputs": [
        {
          "internalType": "uint256",
          "name": "amount",
          "type": "uint256"
        }
      ],
      "name": "mint",
      "outputs": [],
      "stateMutability": "payable",
      "type": "function",
      "payable": true
    },
    {
      "inputs": [
        {
          "internalType": "uint256",
          "name": "amount",
          "type": "uint256"
        }
      ],
      "name": "whitelistMint",
      "outputs": [],
      "stateMutability": "payable",
      "type": "function",
      "payable": true
    },
    {
      "inputs": [],
      "name": "getTotalSupply",
      "outputs": [
        {
          "internalType": "uint256",
          "name": "supply",
          "type": "uint256"
        }
      ],
      "stateMutability": "view",
      "type": "function",
      "constant": true
    },
    {
      "inputs": [],
      "name": "getCurrentSupply",
      "outputs": [
        {
          "internalType": "uint256",
          "name": "supply",
          "type": "uint256"
        }
      ],
      "stateMutability": "view",
      "type": "function",
      "constant": true
    },
    {
      "inputs": [
        {
          "internalType": "uint256",
          "name": "tokenId",
          "type": "uint256"
        }
      ],
      "name": "tokenURI",
      "outputs": [
        {
          "internalType": "string",
          "name": "",
          "type": "string"
        }
      ],
      "stateMutability": "view",
      "type": "function",
      "constant": true
    },
    {
      "inputs": [
        {
          "internalType": "string",
          "name": "_newBaseURI",
          "type": "string"
        }
      ],
      "name": "setBaseURI",
      "outputs": [],
      "stateMutability": "nonpayable",
      "type": "function"
    },
    {
      "inputs": [
        {
          "internalType": "uint256",
          "name": "newNFTCost",
          "type": "uint256"
        }
      ],
      "name": "setNFTCost",
      "outputs": [],
      "stateMutability": "nonpayable",
      "type": "function"
    },
    {
      "inputs": [],
      "name": "getBaseURI",
      "outputs": [
        {
          "internalType": "string",
          "name": "",
          "type": "string"
        }
      ],
      "stateMutability": "view",
      "type": "function",
      "constant": true
    },
    {
      "inputs": [],
      "name": "getNFTCost",
      "outputs": [
        {
          "internalType": "uint256",
          "name": "",
          "type": "uint256"
        }
      ],
      "stateMutability": "view",
      "type": "function",
      "constant": true
    },
    {
      "inputs": [],
      "name": "getPublicSaleIsActive",
      "outputs": [
        {
          "internalType": "bool",
          "name": "",
          "type": "bool"
        }
      ],
      "stateMutability": "view",
      "type": "function",
      "constant": true
    },
    {
      "inputs": [
        {
          "internalType": "string",
          "name": "_newBaseExtension",
          "type": "string"
        }
      ],
      "name": "setBaseExtension",
      "outputs": [],
      "stateMutability": "nonpayable",
      "type": "function"
    },
    {
      "inputs": [
        {
          "internalType": "address[]",
          "name": "addresses",
          "type": "address[]"
        }
      ],
      "name": "batchAddToWhitelist",
      "outputs": [],
      "stateMutability": "nonpayable",
      "type": "function"
    },
    {
      "inputs": [
        {
          "internalType": "address",
          "name": "newAddress",
          "type": "address"
        }
      ],
      "name": "singleAddToWhitelist",
      "outputs": [],
      "stateMutability": "nonpayable",
      "type": "function"
    },
    {
      "inputs": [
        {
          "internalType": "address[]",
          "name": "addresses",
          "type": "address[]"
        }
      ],
      "name": "batchRemoveFromWhitelist",
      "outputs": [],
      "stateMutability": "nonpayable",
      "type": "function"
    },
    {
      "inputs": [
        {
          "internalType": "address",
          "name": "addressToRemove",
          "type": "address"
        }
      ],
      "name": "singleRemoveFromWhitelist",
      "outputs": [],
      "stateMutability": "nonpayable",
      "type": "function"
    },
    {
      "inputs": [
        {
          "internalType": "address[]",
          "name": "addresses",
          "type": "address[]"
        }
      ],
      "name": "batchAddToBlacklist",
      "outputs": [],
      "stateMutability": "nonpayable",
      "type": "function"
    },
    {
      "inputs": [
        {
          "internalType": "address",
          "name": "newAddress",
          "type": "address"
        }
      ],
      "name": "singleAddToBlacklist",
      "outputs": [],
      "stateMutability": "nonpayable",
      "type": "function"
    },
    {
      "inputs": [
        {
          "internalType": "address[]",
          "name": "addresses",
          "type": "address[]"
        }
      ],
      "name": "batchRemoveFromBlacklist",
      "outputs": [],
      "stateMutability": "nonpayable",
      "type": "function"
    },
    {
      "inputs": [
        {
          "internalType": "address",
          "name": "addressToRemove",
          "type": "address"
        }
      ],
      "name": "singleRemoveFromBlacklist",
      "outputs": [],
      "stateMutability": "nonpayable",
      "type": "function"
    },
    {
      "inputs": [
        {
          "internalType": "uint16",
          "name": "newMaxSupply",
          "type": "uint16"
        }
      ],
      "name": "adminIncreaseMaxSupply",
      "outputs": [],
      "stateMutability": "nonpayable",
      "type": "function"
    },
    {
      "inputs": [
        {
          "internalType": "bool",
          "name": "saleState",
          "type": "bool"
        }
      ],
      "name": "adminManageSaleState",
      "outputs": [],
      "stateMutability": "nonpayable",
      "type": "function"
    },
    {
      "inputs": [
        {
          "internalType": "bool",
          "name": "whitelistState",
          "type": "bool"
        }
      ],
      "name": "adminManageWhitelistState",
      "outputs": [],
      "stateMutability": "nonpayable",
      "type": "function"
    },
    {
      "inputs": [],
      "name": "withdraw",
      "outputs": [],
      "stateMutability": "payable",
      "type": "function",
      "payable": true
    }
  ],
  "bytecode": "0x60c06040526005608081905264173539b7b760d91b60a0908152620000289160099190620001e3565b50600f805461ff001960ff199091166001171690553480156200004a57600080fd5b5060405162002beb38038062002beb8339810160408190526200006d9162000289565b6040805180820182526004808252634342414960e01b602080840182815285518087019096529285528401528151919291620000ac91600091620001e3565b508051620000c2906001906020840190620001e3565b505050620000df620000d96200011560201b60201c565b62000119565b60016007556032600a556000600b5566038d7ea4c68000600c55600f805460ff191690556200010e816200016b565b50620003b2565b3390565b600680546001600160a01b038381166001600160a01b0319831681179093556040519116919082907f8be0079c531659141344cd1fd0a4f28419497f9722a3daafe3b4186f6b6457e090600090a35050565b6006546001600160a01b03163314620001ca5760405162461bcd60e51b815260206004820181905260248201527f4f776e61626c653a2063616c6c6572206973206e6f7420746865206f776e6572604482015260640160405180910390fd5b8051620001df906008906020840190620001e3565b5050565b828054620001f1906200035f565b90600052602060002090601f01602090048101928262000215576000855562000260565b82601f106200023057805160ff191683800117855562000260565b8280016001018555821562000260579182015b828111156200026057825182559160200191906001019062000243565b506200026e92915062000272565b5090565b5b808211156200026e576000815560010162000273565b600060208083850312156200029c578182fd5b82516001600160401b0380821115620002b3578384fd5b818501915085601f830112620002c7578384fd5b815181811115620002dc57620002dc6200039c565b604051601f8201601f19908116603f011681019083821181831017156200030757620003076200039c565b8160405282815288868487010111156200031f578687fd5b8693505b8284101562000342578484018601518185018701529285019262000323565b828411156200035357868684830101525b98975050505050505050565b6002810460018216806200037457607f821691505b602082108114156200039657634e487b7160e01b600052602260045260246000fd5b50919050565b634e487b7160e01b600052604160045260246000fd5b61282980620003c26000396000f3fe6080604052600436106102305760003560e01c8063715018a61161012e578063b88d4fde116100ab578063da3ef23f1161006f578063da3ef23f1461062f578063da6cdfbf1461064f578063e985e9c514610667578063f2fde38b146106b0578063f63fd50c146106d057610230565b8063b88d4fde146105a5578063c4e41b22146105c5578063c6682862146105da578063c87b56dd146105ef578063d71626571461060f57610230565b806395d89b41116100f257806395d89b411461051d57806395eb3e4814610532578063a0712d6814610552578063a22cb46514610565578063b6e455521461058557610230565b8063715018a6146104a257806379c501a4146104b7578063868ff4a2146104cc57806389f7abfc146104df5780638da5cb5b146104ff57610230565b80632a06d686116101bc57806355f804b31161018057806355f804b31461040d5780636352211e1461042d578063679d665f1461044d57806370a082311461046d578063714c53981461048d57610230565b80632a06d686146103865780632db6fa36146103a65780633ccfd60b146103c657806342842e0e146103ce5780634f3e1efc146103ee57610230565b8063095ea7b311610203578063095ea7b3146102e657806310afeeae1461030657806321f448821461032657806323b872dd146103465780632546df361461036657610230565b806301ffc9a714610235578063045fb8881461026a57806306fdde031461028c578063081812fc146102ae575b600080fd5b34801561024157600080fd5b50610255610250366004612276565b6106f0565b60405190151581526020015b60405180910390f35b34801561027657600080fd5b5061028a6102853660046121ae565b610744565b005b34801561029857600080fd5b506102a16107fc565b6040516102619190612459565b3480156102ba57600080fd5b506102ce6102c9366004612316565b61088e565b6040516001600160a01b039091168152602001610261565b3480156102f257600080fd5b5061028a610301366004612185565b610923565b34801561031257600080fd5b5061028a61032136600461205c565b610a39565b34801561033257600080fd5b5061028a61034136600461205c565b610a80565b34801561035257600080fd5b5061028a6103613660046120a8565b610ad6565b34801561037257600080fd5b5061028a61038136600461225c565b610b07565b34801561039257600080fd5b5061028a6103a13660046122f4565b610b4b565b3480156103b257600080fd5b5061028a6103c13660046121ae565b610b7e565b61028a610c19565b3480156103da57600080fd5b5061028a6103e93660046120a8565b610cf8565b3480156103fa57600080fd5b50600b545b604051908152602001610261565b34801561041957600080fd5b5061028a6104283660046122ae565b610d13565b34801561043957600080fd5b506102ce610448366004612316565b610d50565b34801561045957600080fd5b5061028a6104683660046121ae565b610dc7565b34801561047957600080fd5b506103ff61048836600461205c565b610e62565b34801561049957600080fd5b506102a1610ee9565b3480156104ae57600080fd5b5061028a610ef8565b3480156104c357600080fd5b50600c546103ff565b61028a6104da366004612316565b610f2e565b3480156104eb57600080fd5b5061028a6104fa36600461225c565b61115d565b34801561050b57600080fd5b506006546001600160a01b03166102ce565b34801561052957600080fd5b506102a161119a565b34801561053e57600080fd5b5061028a61054d366004612316565b6111a9565b61028a610560366004612316565b6111d8565b34801561057157600080fd5b5061028a61058036600461215c565b611370565b34801561059157600080fd5b5061028a6105a036600461205c565b61137b565b3480156105b157600080fd5b5061028a6105c03660046120e3565b6113c2565b3480156105d157600080fd5b50600a546103ff565b3480156105e657600080fd5b506102a16113fa565b3480156105fb57600080fd5b506102a161060a366004612316565b611488565b34801561061b57600080fd5b5061028a61062a3660046121ae565b611566565b34801561063b57600080fd5b5061028a61064a3660046122ae565b611611565b34801561065b57600080fd5b50600f5460ff16610255565b34801561067357600080fd5b50610255610682366004612076565b6001600160a01b03918216600090815260056020908152604080832093909416825291909152205460ff1690565b3480156106bc57600080fd5b5061028a6106cb36600461205c565b61164e565b3480156106dc57600080fd5b5061028a6106eb36600461205c565b6116e9565b60006001600160e01b031982166380ac58cd60e01b148061072157506001600160e01b03198216635b5e139f60e01b145b8061073c57506301ffc9a760e01b6001600160e01b03198316145b90505b919050565b6006546001600160a01b031633146107775760405162461bcd60e51b815260040161076e90612546565b60405180910390fd5b60005b81518110156107f857600d60008383815181106107a757634e487b7160e01b600052603260045260246000fd5b60200260200101516001600160a01b03166001600160a01b0316815260200190815260200160002060008154809291906107e09061271a565b919050555080806107f09061276c565b91505061077a565b5050565b60606000805461080b90612731565b80601f016020809104026020016040519081016040528092919081815260200182805461083790612731565b80156108845780601f1061085957610100808354040283529160200191610884565b820191906000526020600020905b81548152906001019060200180831161086757829003601f168201915b5050505050905090565b6000818152600260205260408120546001600160a01b03166109075760405162461bcd60e51b815260206004820152602c60248201527f4552433732313a20617070726f76656420717565727920666f72206e6f6e657860448201526b34b9ba32b73a103a37b5b2b760a11b606482015260840161076e565b506000908152600460205260409020546001600160a01b031690565b600061092e82610d50565b9050806001600160a01b0316836001600160a01b0316141561099c5760405162461bcd60e51b815260206004820152602160248201527f4552433732313a20617070726f76616c20746f2063757272656e74206f776e656044820152603960f91b606482015260840161076e565b336001600160a01b03821614806109b857506109b88133610682565b610a2a5760405162461bcd60e51b815260206004820152603860248201527f4552433732313a20617070726f76652063616c6c6572206973206e6f74206f7760448201527f6e6572206e6f7220617070726f76656420666f7220616c6c0000000000000000606482015260840161076e565b610a348383611737565b505050565b6006546001600160a01b03163314610a635760405162461bcd60e51b815260040161076e90612546565b6001600160a01b03166000908152600d6020526040902060019055565b6006546001600160a01b03163314610aaa5760405162461bcd60e51b815260040161076e90612546565b6001600160a01b0381166000908152600d60205260408120805491610ace8361271a565b919050555050565b610ae033826117a5565b610afc5760405162461bcd60e51b815260040161076e906125c7565b610a3483838361189c565b6006546001600160a01b03163314610b315760405162461bcd60e51b815260040161076e90612546565b600f80549115156101000261ff0019909216919091179055565b6006546001600160a01b03163314610b755760405162461bcd60e51b815260040161076e90612546565b61ffff16600a55565b6006546001600160a01b03163314610ba85760405162461bcd60e51b815260040161076e90612546565b60005b81518110156107f8576001600d6000848481518110610bda57634e487b7160e01b600052603260045260246000fd5b60200260200101516001600160a01b03166001600160a01b03168152602001908152602001600020819055508080610c119061276c565b915050610bab565b6006546001600160a01b03163314610c435760405162461bcd60e51b815260040161076e90612546565b60026007541415610c965760405162461bcd60e51b815260206004820152601f60248201527f5265656e7472616e637947756172643a207265656e7472616e742063616c6c00604482015260640161076e565b6002600755604051600090339047908381818185875af1925050503d8060008114610cdd576040519150601f19603f3d011682016040523d82523d6000602084013e610ce2565b606091505b5050905080610cf057600080fd5b506001600755565b610a34838383604051806020016040528060008152506113c2565b6006546001600160a01b03163314610d3d5760405162461bcd60e51b815260040161076e90612546565b80516107f8906008906020840190611f44565b6000818152600260205260408120546001600160a01b03168061073c5760405162461bcd60e51b815260206004820152602960248201527f4552433732313a206f776e657220717565727920666f72206e6f6e657869737460448201526832b73a103a37b5b2b760b91b606482015260840161076e565b6006546001600160a01b03163314610df15760405162461bcd60e51b815260040161076e90612546565b60005b81518110156107f8576001600e6000848481518110610e2357634e487b7160e01b600052603260045260246000fd5b60200260200101516001600160a01b03166001600160a01b03168152602001908152602001600020819055508080610e5a9061276c565b915050610df4565b60006001600160a01b038216610ecd5760405162461bcd60e51b815260206004820152602a60248201527f4552433732313a2062616c616e636520717565727920666f7220746865207a65604482015269726f206164647265737360b01b606482015260840161076e565b506001600160a01b031660009081526003602052604090205490565b60606008805461080b90612731565b6006546001600160a01b03163314610f225760405162461bcd60e51b815260040161076e90612546565b610f2c6000611a38565b565b33610f7b5760405162461bcd60e51b815260206004820152601c60248201527f4552433732314d696e743a20494e56414c49445f414444524553532e00000000604482015260640161076e565b336000908152600d6020526040902054610ffd5760405162461bcd60e51b815260206004820152603e60248201527f594f5520415245204e4f5420494e205448452057484954454c495354204f522060448201527f414c5245414459204d494e5420544845204d4158494d554d20534c4f54530000606482015260840161076e565b80600b5461100b919061268c565b600a54101561102c5760405162461bcd60e51b815260040161076e906124be565b600a81111561104d5760405162461bcd60e51b815260040161076e9061257b565b336000908152600e602052604090205460011161107c5760405162461bcd60e51b815260040161076e90612618565b600f54610100900460ff166110d35760405162461bcd60e51b815260206004820152601760248201527f57484954454c495354204953204e4f5420414354495645000000000000000000604482015260640161076e565b6006546001600160a01b031633146111125780600c546110f391906126b8565b3410156111125760405162461bcd60e51b815260040161076e90612500565b60005b818110156107f85761113533600b546001611130919061268c565b611a8a565b600b80549060006111458361276c565b919050555080806111559061276c565b915050611115565b6006546001600160a01b031633146111875760405162461bcd60e51b815260040161076e90612546565b600f805460ff1916911515919091179055565b60606001805461080b90612731565b6006546001600160a01b031633146111d35760405162461bcd60e51b815260040161076e90612546565b600c55565b336112255760405162461bcd60e51b815260206004820152601c60248201527f4552433732314d696e743a20494e56414c49445f414444524553532e00000000604482015260640161076e565b80600b54611233919061268c565b600a5410156112545760405162461bcd60e51b815260040161076e906124be565b600a8111156112755760405162461bcd60e51b815260040161076e9061257b565b336000908152600e60205260409020546001116112a45760405162461bcd60e51b815260040161076e90612618565b600f5460ff166112eb5760405162461bcd60e51b815260206004820152601260248201527153414c45204953204e4f542041435449564560701b604482015260640161076e565b6006546001600160a01b0316331461132a5780600c5461130b91906126b8565b34101561132a5760405162461bcd60e51b815260040161076e90612500565b60005b818110156107f85761134833600b546001611130919061268c565b600b80549060006113588361276c565b919050555080806113689061276c565b91505061132d565b6107f8338383611aa4565b6006546001600160a01b031633146113a55760405162461bcd60e51b815260040161076e90612546565b6001600160a01b03166000908152600e6020526040902060019055565b6113cc33836117a5565b6113e85760405162461bcd60e51b815260040161076e906125c7565b6113f484848484611b73565b50505050565b6009805461140790612731565b80601f016020809104026020016040519081016040528092919081815260200182805461143390612731565b80156114805780601f1061145557610100808354040283529160200191611480565b820191906000526020600020905b81548152906001019060200180831161146357829003601f168201915b505050505081565b6000818152600260205260409020546060906001600160a01b03166115075760405162461bcd60e51b815260206004820152602f60248201527f4552433732314d657461646174613a2055524920717565727920666f72206e6f60448201526e3732bc34b9ba32b73a103a37b5b2b760891b606482015260840161076e565b6000611511610ee9565b90506000815111611531576040518060200160405280600081525061155f565b8061153b84611ba6565b600960405160200161154f9392919061235a565b6040516020818303038152906040525b9392505050565b6006546001600160a01b031633146115905760405162461bcd60e51b815260040161076e90612546565b60005b81518110156107f857600e60008383815181106115c057634e487b7160e01b600052603260045260246000fd5b60200260200101516001600160a01b03166001600160a01b0316815260200190815260200160002060008154809291906115f99061271a565b919050555080806116099061276c565b915050611593565b6006546001600160a01b0316331461163b5760405162461bcd60e51b815260040161076e90612546565b80516107f8906009906020840190611f44565b6006546001600160a01b031633146116785760405162461bcd60e51b815260040161076e90612546565b6001600160a01b0381166116dd5760405162461bcd60e51b815260206004820152602660248201527f4f776e61626c653a206e6577206f776e657220697320746865207a65726f206160448201526564647265737360d01b606482015260840161076e565b6116e681611a38565b50565b6006546001600160a01b031633146117135760405162461bcd60e51b815260040161076e90612546565b6001600160a01b0381166000908152600e60205260408120805491610ace8361271a565b600081815260046020526040902080546001600160a01b0319166001600160a01b038416908117909155819061176c82610d50565b6001600160a01b03167f8c5be1e5ebec7d5bd14f71427d1e84f3dd0314c0f7b2291e5b200ac8c7c3b92560405160405180910390a45050565b6000818152600260205260408120546001600160a01b031661181e5760405162461bcd60e51b815260206004820152602c60248201527f4552433732313a206f70657261746f7220717565727920666f72206e6f6e657860448201526b34b9ba32b73a103a37b5b2b760a11b606482015260840161076e565b600061182983610d50565b9050806001600160a01b0316846001600160a01b0316148061187057506001600160a01b0380821660009081526005602090815260408083209388168352929052205460ff165b806118945750836001600160a01b03166118898461088e565b6001600160a01b0316145b949350505050565b826001600160a01b03166118af82610d50565b6001600160a01b0316146119135760405162461bcd60e51b815260206004820152602560248201527f4552433732313a207472616e736665722066726f6d20696e636f72726563742060448201526437bbb732b960d91b606482015260840161076e565b6001600160a01b0382166119755760405162461bcd60e51b8152602060048201526024808201527f4552433732313a207472616e7366657220746f20746865207a65726f206164646044820152637265737360e01b606482015260840161076e565b611980600082611737565b6001600160a01b03831660009081526003602052604081208054600192906119a99084906126d7565b90915550506001600160a01b03821660009081526003602052604081208054600192906119d790849061268c565b909155505060008181526002602052604080822080546001600160a01b0319166001600160a01b0386811691821790925591518493918716917fddf252ad1be2c89b69c2b068fc378daa952ba7f163c4a11628f55a4df523b3ef91a4610a34565b600680546001600160a01b038381166001600160a01b0319831681179093556040519116919082907f8be0079c531659141344cd1fd0a4f28419497f9722a3daafe3b4186f6b6457e090600090a35050565b6107f8828260405180602001604052806000815250611cc1565b816001600160a01b0316836001600160a01b03161415611b065760405162461bcd60e51b815260206004820152601960248201527f4552433732313a20617070726f766520746f2063616c6c657200000000000000604482015260640161076e565b6001600160a01b03838116600081815260056020908152604080832094871680845294825291829020805460ff191686151590811790915591519182527f17307eab39ab6107e8899845ad3d59bd9653f200f220920489ca2b5937696c31910160405180910390a3505050565b611b7e84848461189c565b611b8a84848484611cf4565b6113f45760405162461bcd60e51b815260040161076e9061246c565b606081611bcb57506040805180820190915260018152600360fc1b602082015261073f565b8160005b8115611bf55780611bdf8161276c565b9150611bee9050600a836126a4565b9150611bcf565b60008167ffffffffffffffff811115611c1e57634e487b7160e01b600052604160045260246000fd5b6040519080825280601f01601f191660200182016040528015611c48576020820181803683370190505b5090505b841561189457611c5d6001836126d7565b9150611c6a600a86612787565b611c7590603061268c565b60f81b818381518110611c9857634e487b7160e01b600052603260045260246000fd5b60200101906001600160f81b031916908160001a905350611cba600a866126a4565b9450611c4c565b611ccb8383611e01565b611cd86000848484611cf4565b610a345760405162461bcd60e51b815260040161076e9061246c565b60006001600160a01b0384163b15611df657604051630a85bd0160e11b81526001600160a01b0385169063150b7a0290611d3890339089908890889060040161241c565b602060405180830381600087803b158015611d5257600080fd5b505af1925050508015611d82575060408051601f3d908101601f19168201909252611d7f91810190612292565b60015b611ddc573d808015611db0576040519150601f19603f3d011682016040523d82523d6000602084013e611db5565b606091505b508051611dd45760405162461bcd60e51b815260040161076e9061246c565b805181602001fd5b6001600160e01b031916630a85bd0160e11b149050611894565b506001949350505050565b6001600160a01b038216611e575760405162461bcd60e51b815260206004820181905260248201527f4552433732313a206d696e7420746f20746865207a65726f2061646472657373604482015260640161076e565b6000818152600260205260409020546001600160a01b031615611ebc5760405162461bcd60e51b815260206004820152601c60248201527f4552433732313a20746f6b656e20616c7265616479206d696e74656400000000604482015260640161076e565b6001600160a01b0382166000908152600360205260408120805460019290611ee590849061268c565b909155505060008181526002602052604080822080546001600160a01b0319166001600160a01b03861690811790915590518392907fddf252ad1be2c89b69c2b068fc378daa952ba7f163c4a11628f55a4df523b3ef908290a46107f8565b828054611f5090612731565b90600052602060002090601f016020900481019282611f725760008555611fb8565b82601f10611f8b57805160ff1916838001178555611fb8565b82800160010185558215611fb8579182015b82811115611fb8578251825591602001919060010190611f9d565b50611fc4929150611fc8565b5090565b5b80821115611fc45760008155600101611fc9565b600067ffffffffffffffff831115611ff757611ff76127c7565b61200a601f8401601f191660200161265b565b905082815283838301111561201e57600080fd5b828260208301376000602084830101529392505050565b80356001600160a01b038116811461073f57600080fd5b8035801515811461073f57600080fd5b60006020828403121561206d578081fd5b61155f82612035565b60008060408385031215612088578081fd5b61209183612035565b915061209f60208401612035565b90509250929050565b6000806000606084860312156120bc578081fd5b6120c584612035565b92506120d360208501612035565b9150604084013590509250925092565b600080600080608085870312156120f8578081fd5b61210185612035565b935061210f60208601612035565b925060408501359150606085013567ffffffffffffffff811115612131578182fd5b8501601f81018713612141578182fd5b61215087823560208401611fdd565b91505092959194509250565b6000806040838503121561216e578182fd5b61217783612035565b915061209f6020840161204c565b60008060408385031215612197578182fd5b6121a083612035565b946020939093013593505050565b600060208083850312156121c0578182fd5b823567ffffffffffffffff808211156121d7578384fd5b818501915085601f8301126121ea578384fd5b8135818111156121fc576121fc6127c7565b838102915061220c84830161265b565b8181528481019084860184860187018a1015612226578788fd5b8795505b8386101561224f5761223b81612035565b83526001959095019491860191860161222a565b5098975050505050505050565b60006020828403121561226d578081fd5b61155f8261204c565b600060208284031215612287578081fd5b813561155f816127dd565b6000602082840312156122a3578081fd5b815161155f816127dd565b6000602082840312156122bf578081fd5b813567ffffffffffffffff8111156122d5578182fd5b8201601f810184136122e5578182fd5b61189484823560208401611fdd565b600060208284031215612305578081fd5b813561ffff8116811461155f578182fd5b600060208284031215612327578081fd5b5035919050565b600081518084526123468160208601602086016126ee565b601f01601f19169290920160200192915050565b60008451602061236d8285838a016126ee565b8551918401916123808184848a016126ee565b855492019183906002810460018083168061239c57607f831692505b8583108114156123ba57634e487b7160e01b88526022600452602488fd5b8080156123ce57600181146123df5761240b565b60ff1985168852838801955061240b565b60008b815260209020895b858110156124035781548a8201529084019088016123ea565b505083880195505b50939b9a5050505050505050505050565b6001600160a01b038581168252841660208201526040810183905260806060820181905260009061244f9083018461232e565b9695505050505050565b60006020825261155f602083018461232e565b60208082526032908201527f4552433732313a207472616e7366657220746f206e6f6e20455243373231526560408201527131b2b4bb32b91034b6b83632b6b2b73a32b960711b606082015260800190565b60208082526022908201527f4e4f5420454e4f554748204e46545320415641494c41424c4520544f204d494e6040820152612a1760f11b606082015260800190565b60208082526026908201527f504c454153452053454e4420544845205245515549524544204554484552204160408201526526a7aaa72a1760d11b606082015260800190565b6020808252818101527f4f776e61626c653a2063616c6c6572206973206e6f7420746865206f776e6572604082015260600190565b6020808252602c908201527f43414e2754204d494e54204d4f5245205448414e203130204e4654532050455260408201526b102a2920a729a0a1aa24a7a760a11b606082015260800190565b60208082526031908201527f4552433732313a207472616e736665722063616c6c6572206973206e6f74206f6040820152701ddb995c881b9bdc88185c1c1c9bdd9959607a1b606082015260800190565b60208082526023908201527f594f552041524520424c41434b4c49535445442c20554e41424c4520544f204d60408201526212539560ea1b606082015260800190565b604051601f8201601f1916810167ffffffffffffffff81118282101715612684576126846127c7565b604052919050565b6000821982111561269f5761269f61279b565b500190565b6000826126b3576126b36127b1565b500490565b60008160001904831182151516156126d2576126d261279b565b500290565b6000828210156126e9576126e961279b565b500390565b60005b838110156127095781810151838201526020016126f1565b838111156113f45750506000910152565b6000816127295761272961279b565b506000190190565b60028104600182168061274557607f821691505b6020821081141561276657634e487b7160e01b600052602260045260246000fd5b50919050565b60006000198214156127805761278061279b565b5060010190565b600082612796576127966127b1565b500690565b634e487b7160e01b600052601160045260246000fd5b634e487b7160e01b600052601260045260246000fd5b634e487b7160e01b600052604160045260246000fd5b6001600160e01b0319811681146116e657600080fdfea26469706673582212202777bc8a4b70c4f2c5c17f286687b4a0f89fff7928561aa5a29f883266e9deb464736f6c63430008020033",
  "immutableReferences": {},
  "source": "// SPDX-License-Identifier: MIT\n\npragma solidity >=0.7.0 <0.9.0;\n\nimport \"@openzeppelin/contracts/token/ERC721/ERC721.sol\";\nimport \"@openzeppelin/contracts/access/Ownable.sol\";\nimport \"@openzeppelin/contracts/security/ReentrancyGuard.sol\";\n\ncontract CBAI is ERC721, Ownable, ReentrancyGuard {\n\n  using Strings for uint256;\n\n  string baseURI;\n  string public baseExtension = \".json\";\n  uint256 totalSupply;\n  uint256 currentSupply;\n  uint256 NFTCost;\n  mapping (address => uint256) whitelist;\n  mapping (address => uint256) blacklist;\n  bool isSaleActive = true;\n  bool isWhitelistEnabled = false;\n\n  constructor(string memory uri) ERC721(\"CBAI\", \"CBAI\") {\n    totalSupply = 50;\n    currentSupply = 0;\n    NFTCost = 0.001 ether;\n    isSaleActive = false;\n    setBaseURI(uri);\n  }\n\n  function _baseURI() internal view virtual override returns (string memory) {\n    return baseURI;\n  }\n\n  function mint(uint256 amount) public payable {\n    require(msg.sender != address(0), \"ERC721Mint: INVALID_ADDRESS.\");\n    require(totalSupply >= currentSupply + amount, \"NOT ENOUGH NFTS AVAILABLE TO MINT.\");\n    require(amount <= 10, \"CAN'T MINT MORE THAN 10 NFTS PER TRANSACTION\");\n    require(blacklist[msg.sender] < 1, \"YOU ARE BLACKLISTED, UNABLE TO MINT\");\n    require(isSaleActive, \"SALE IS NOT ACTIVE\");\n\n    if(msg.sender != owner()) {\n      require(msg.value >= NFTCost * amount, \"PLEASE SEND THE REQUIRED ETHER AMOUNT.\");\n    }\n\n    for(uint256 i = 0; i < amount; i++) {\n      _safeMint(msg.sender, currentSupply + 1);\n      currentSupply++;\n    }\n  }\n\n  function whitelistMint(uint256 amount) public payable {\n    require(msg.sender != address(0), \"ERC721Mint: INVALID_ADDRESS.\");\n    require(whitelist[msg.sender] > 0, \"YOU ARE NOT IN THE WHITELIST OR ALREADY MINT THE MAXIMUM SLOTS\");\n    require(totalSupply >= currentSupply + amount, \"NOT ENOUGH NFTS AVAILABLE TO MINT.\");\n    require(amount <= 10, \"CAN'T MINT MORE THAN 10 NFTS PER TRANSACTION\");\n    require(blacklist[msg.sender] < 1, \"YOU ARE BLACKLISTED, UNABLE TO MINT\");\n    require(isWhitelistEnabled, \"WHITELIST IS NOT ACTIVE\");\n\n    if(msg.sender != owner()) {\n      require(msg.value >= NFTCost * amount, \"PLEASE SEND THE REQUIRED ETHER AMOUNT.\");\n    }\n\n    for(uint256 i = 0; i < amount; i++) {\n      _safeMint(msg.sender, currentSupply + 1);\n      currentSupply++;\n    }\n  }\n\n\n  function getTotalSupply() public view returns (uint256 supply) {\n    return totalSupply;\n  }\n\n  function getCurrentSupply() public view returns (uint256 supply) {\n    return currentSupply;\n  }\n\n  function tokenURI(uint256 tokenId)\n  public\n  view\n  virtual\n  override\n  returns (string memory)\n  {\n    require(\n      _exists(tokenId),\n      \"ERC721Metadata: URI query for nonexistent token\"\n    );\n\n    string memory currentBaseURI = _baseURI();\n    return bytes(currentBaseURI).length > 0\n    ? string(abi.encodePacked(currentBaseURI, tokenId.toString(), baseExtension))\n    : \"\";\n  }\n\n  function setBaseURI(string memory _newBaseURI) public onlyOwner {\n    baseURI = _newBaseURI;\n  }\n\n  function setNFTCost(uint256 newNFTCost) public onlyOwner {\n    NFTCost = newNFTCost;\n  }\n\n  function getBaseURI() view public returns (string memory) {\n    return baseURI;\n  }\n\n  function getNFTCost() view public returns (uint256) {\n    return NFTCost;\n  }\n\n  function getPublicSaleIsActive() view public returns (bool) {\n    return isSaleActive;\n  }\n\n  function setBaseExtension(string memory _newBaseExtension) public onlyOwner {\n    baseExtension = _newBaseExtension;\n  }\n\n  function batchAddToWhitelist(address[] memory addresses) external onlyOwner {\n    for (uint256 i = 0; i < addresses.length; i++) {\n      whitelist[addresses[i]] = 1;\n    }\n  }\n\n  function singleAddToWhitelist(address newAddress) external onlyOwner {\n    whitelist[newAddress] = 1;\n  }\n\n  function batchRemoveFromWhitelist(address [] memory addresses) external onlyOwner {\n    for (uint256 i = 0; i < addresses.length; i++) {\n      whitelist[addresses[i]]--;\n    }\n  }\n\n  function singleRemoveFromWhitelist(address addressToRemove) external onlyOwner {\n    whitelist[addressToRemove]--;\n  }\n\n  function batchAddToBlacklist(address[] memory addresses) external onlyOwner {\n    for (uint256 i = 0; i < addresses.length; i++) {\n      blacklist[addresses[i]] = 1;\n    }\n  }\n\n  function singleAddToBlacklist(address newAddress) external onlyOwner {\n    blacklist[newAddress] = 1;\n  }\n\n  function batchRemoveFromBlacklist(address [] memory addresses) external onlyOwner {\n    for (uint256 i = 0; i < addresses.length; i++) {\n      blacklist[addresses[i]]--;\n    }\n  }\n\n  function singleRemoveFromBlacklist(address addressToRemove) external onlyOwner {\n    blacklist[addressToRemove]--;\n  }\n\n  function adminIncreaseMaxSupply(uint16 newMaxSupply) external onlyOwner {\n    totalSupply = newMaxSupply;\n  }\n\n  function adminManageSaleState(bool saleState) external onlyOwner {\n    isSaleActive = saleState;\n  }\n\n  function adminManageWhitelistState(bool whitelistState) external onlyOwner {\n    isWhitelistEnabled = whitelistState;\n  }\n\n  function withdraw() public payable onlyOwner nonReentrant{\n    (bool success, ) = payable(msg.sender).call{value: address(this).balance}(\"\");\n    require(success);\n  }\n}\n",
  "sourcePath": "D:\\Development\\DinoCode Technologies\\Web\\cbai-dev\\contracts\\CBAI.sol",
  "compiler": {
    "name": "solc",
    "version": "0.8.2+commit.661d1103.Emscripten.clang"
  },
  "schemaVersion": "3.4.5",
  "updatedAt": "2022-10-04T22:08:51.497Z",
  "networkType": "ethereum",
  "devdoc": {
    "kind": "dev",
    "methods": {
      "approve(address,uint256)": {
        "details": "See {IERC721-approve}."
      },
      "balanceOf(address)": {
        "details": "See {IERC721-balanceOf}."
      },
      "getApproved(uint256)": {
        "details": "See {IERC721-getApproved}."
      },
      "isApprovedForAll(address,address)": {
        "details": "See {IERC721-isApprovedForAll}."
      },
      "name()": {
        "details": "See {IERC721Metadata-name}."
      },
      "owner()": {
        "details": "Returns the address of the current owner."
      },
      "ownerOf(uint256)": {
        "details": "See {IERC721-ownerOf}."
      },
      "renounceOwnership()": {
        "details": "Leaves the contract without owner. It will not be possible to call `onlyOwner` functions anymore. Can only be called by the current owner. NOTE: Renouncing ownership will leave the contract without an owner, thereby removing any functionality that is only available to the owner."
      },
      "safeTransferFrom(address,address,uint256)": {
        "details": "See {IERC721-safeTransferFrom}."
      },
      "safeTransferFrom(address,address,uint256,bytes)": {
        "details": "See {IERC721-safeTransferFrom}."
      },
      "setApprovalForAll(address,bool)": {
        "details": "See {IERC721-setApprovalForAll}."
      },
      "supportsInterface(bytes4)": {
        "details": "See {IERC165-supportsInterface}."
      },
      "symbol()": {
        "details": "See {IERC721Metadata-symbol}."
      },
      "tokenURI(uint256)": {
        "details": "See {IERC721Metadata-tokenURI}."
      },
      "transferFrom(address,address,uint256)": {
        "details": "See {IERC721-transferFrom}."
      },
      "transferOwnership(address)": {
        "details": "Transfers ownership of the contract to a new account (`newOwner`). Can only be called by the current owner."
      }
    },
    "version": 1
  },
  "userdoc": {
    "kind": "user",
    "methods": {},
    "version": 1
  }
}